:020000040800F2
:10000000100900202D020008235400083B0A0008B4
:1000100021540008290700089D6400080000000022
:10002000000000000000000000000000B35F0008B6
:100030002B07000800000000955C0008A96000087C
:10004000470200084702000847020008470200086C
:1000500047020008470200082D0700084702000871
:10006000470200084702000847020008470200084C
:10007000470200084702000847020008470200083C
:10008000470200084702000847020008470200082C
:100090004702000847020008470200083908000824
:1000A000470200084702000847020008470200080C
:1000B00047020008FD60000885610008470200084B
:1000C00047020008470200084702000847020008EC
:1000D00047020008ED6200084702000847020008D6
:1000E0007D07000847020008470200084702000891
:1000F00047020008470200084702000847020008BC
:1001000047020008470200084702000847020008AB
:10011000470200084702000847020008470200089B
:10012000470200084702000847020008470200088B
:1001300000F002F800F06BF80AA090E8000C82448E
:100140008344AAF10107DA4501D100F060F8AFF26B
:10015000090EBAE80F0013F0010F18BFFB1A43F0A5
:1001600001031847AC930000CC9300000A444FF001
:10017000000C10F8013B13F0070408BF10F8014B06
:100180001D1108BF10F8015B641E05D010F8016B4B
:10019000641E01F8016BF9D113F0080F1EBF10F8AF
:1001A000014BAD1C0C1B09D16D1E58BF01F801CBD2
:1001B000FAD505E014F8016B01F8016B6D1EF9D555
:1001C0009142D6D37047000000230024002500266A
:1001D000103A28BF78C1FBD8520728BF30C148BFAA
:1001E0000B607047642900F09F80752900F09C80A7
:1001F000782900F0D580632900F02982732900F066
:100200002E82002070471FB51FBD10B510BD00F035
:1002100059FA1146FFF7F7FF06F0A8F900F077FA50
:1002200003B4FFF7F2FF03BC06F040F9094880472A
:1002300009480047FEE7FEE7FEE7FEE7FEE7FEE7C8
:10024000FEE7FEE7FEE7FEE704480549054A064BE0
:1002500070470000AD600008310100081003002065
:100260001009002010050020100500207047000034
:100270000FB4044910B503AA029800F0F5F910BCB8
:100280005DF814FB2400002070B504468569006801
:10029000C10601D5302600E02026C00707D070BD7A
:1002A000D4E9012130469047206A401C20626D1E2F
:1002B000F6D570BD70B5044685690078C00707D1D2
:1002C00070BDD4E9012120209047206A401C2062A3
:1002D0006D1EF6D570BD70B50C460546012A05D0D9
:1002E0002878800600D5EA69002302E0012305E0B2
:1002F0005B1C934202D2E05C0028F9D1A869E618A1
:10030000C01AA861286A184428622846FFF7BCFF73
:1003100004E0D5E9012114F8010B9047B442F8D369
:100320002846FFF7C7FF70BD2DE9F04106460024BF
:1003300010687529314616A510D0AFF3008000284B
:1003400002DA404213A507E031688A0701D512A5F9
:1003500002E0490704D511A5012401E0AFF30080B4
:1003600000210A2206F1240709E0B0FBF2FCB0FBF1
:10037000F2F302FB1C00303078541846491C002868
:10038000F3D123462A463046BDE8F04100F0FCB8E0
:10039000000000002D0000002B00000020000000E5
:1003A00070B504460D4621461068AFF300802188E1
:1003B000090502D50F4A7A4402E00E4A7A440E3209
:1003C000002104F1240305E000F00F060009965D0A
:1003D0005E54491C0028F7D120780023000704D57B
:1003E000702D02D009B1022311322046BDE87040C1
:1003F00000F0CAB8AE8E00002DE9F05F89460446D1
:100400004FF0000ADFF874B1FB44C0F820A020468A
:10041000E1688847002874D0252806D0D4E9012156
:100420009047206A401C2062F1E700265F46204684
:10043000E16888472028054607DB312D05D2781969
:1004400010F8200C08B10643F1E7B00701D526F0FB
:100450000406C4F81CA00027C4F818A02A2D09D04F
:10046000284606F01CF838B304EB8708303DC8F87E
:10047000185019E059F8041B204604EB87029161DB
:10048000E1688847012F054618D1E069002820DA85
:1004900026F020061DE0D8F8180000EB800005EBE0
:1004A00040003038C8F818002046E1688847054603
:1004B00005F0F5FF0028EED1012F0AD02E2D08D12E
:1004C0002046E16888477F1C0546022F46F020063B
:1004D000C4DBA069002803DA404246F00106A061AF
:1004E000F00701D026F010066C2D0BD0682D09D036
:1004F0004C2D39D06A2D35D0742D35D07A2D33D08E
:1005000016E038E0E1682F4620468847B8420546A5
:1005100009D16C2F26D04FF48060E1680643204655
:100520008847054604E06C2F1AD04FF480700643CC
:100530000DB3A5F14100192802D8203546F4006614
:100540004A462946204626604E46FFF74BFE80B1BC
:1005500001280BD0F61D26F0070000F1080956E728
:100560004020E4E78020D8E70020D6E706F1040920
:100570004DE7284652E7206ABDE8F09F848E0000D0
:1005800070477047704770472DE9F0470D46994610
:100590009246044600F124080168880604D5E06903
:1005A00021F01001216000E00120A84201DD471B7D
:1005B00000E00027A1697A1902EB0900081AA0617E
:1005C0002078C00602D42046FFF75EFE002608E031
:1005D000D4E901211AF806009047206A401C761CD5
:1005E00020624E45F4DB2078C0060AD52046FFF78E
:1005F0004BFE06E0D4E9012130209047206A401CE0
:100600002062381EA7F10107F4DC07E0D4E90121DC
:1006100018F805009047206A401C2062281EA5F1AA
:100620000105F3DC2046FFF745FE2078000602D5E1
:100630000220BDE8F0870120FBE710B5436913B144
:10064000AFF3008001E0FFF746FE012010BD1278F5
:1006500000F124010A7000224A700122EDE71168BE
:100660004FF0FF32E9E70000074B70B50D467B44C1
:1006700000F011F80446284600F020F810B14FF0C1
:10068000FF3070BD204670BDE35E000001694A1C6A
:1006900002610878704700B58FB0CDE901310021C3
:1006A000059105497944CDE9031011466846FFF7E5
:1006B000A3FE0FB000BD0000E5FFFFFF007B00F0D0
:1006C00080007047754600F02BF8AE46050069467D
:1006D000534620F00700854618B020B5FFF7B4FD5B
:1006E000BDE820404FF000064FF000074FF0000833
:1006F0004FF0000B21F00701AC46ACE8C009ACE8B4
:10070000C009ACE8C009ACE8C0098D46704710B517
:100710000446AFF300802046BDE81040FFF780BDDF
:1007200000487047AC020020FEE7704710B50A2071
:1007300005F0DCFE01210E4800F076F901280DD10C
:100740000C49D1F8A00170B10020C1F8A0010A49FC
:10075000D1F8880148B10020C1F88801BDE81040F7
:10076000012000F085B80120EFE70120F4E7000048
:1007700000080140000021420080224210B54FF4E1
:100780000044204600F07AF801280FD10A4B19786E
:1007900002290BD2094A002021B9C2F880010120A8
:1007A000C2F88001C2F8B001491C19702046BDE8AA
:1007B000104000F05DB8000015000020000021424C
:1007C0007FB50121052005F073FA0121184800F0DA
:1007D000FFF84FF40044ADF80C404820154D8DF85B
:1007E0000F0003A9284600F0A5F82146284600F08E
:1007F00022F90F21002000F089F800208DF8040074
:100800000C2000948DF8050001248DF80640684600
:1008100000F044F828208DF8080002208DF8090027
:100820008DF80A408DF80B4002A804F0FBFD7FBD57
:10083000000230000008014010B50A2005F056FE05
:100840002021094800F0F0F830B90849D1F8A0019A
:1008500038B10020C1F8A001BDE81040202000F010
:1008600007B80120F6E70000001001400000214217
:10087000014908607047000014040140064A01461F
:1008800000201268044B0A4014331B680B4202D04C
:10089000002A00D0012070470004014030B51A4AF8
:1008A0008379016853B313688B431360111D0B6880
:1008B0000468A3430B60017911440B680468234367
:1008C0000B60114B083319680468A14319601C1DA3
:1008D00021680568A94321604179102905D0114498
:1008E0000A68006802430A6030BD19680268114353
:1008F0001960216800680143216030BD007910440F
:1009000002688A43026030BD0004014010B58A07C6
:1009100021F003040649120F21440F238C689340F1
:100920009C438C608B68904003438B6010BD00003B
:1009300000000140F0B5CC78002204F00F03E4067B
:1009400001D58C7823430C784FF00F0C14F0FF0F77
:100950004FF0010E1BD005680E880EFA02F42640F7
:10096000A64210D196000CFA06F725EA070703FA0B
:1009700006F5CE783D43282E02D0482E02D002E064
:10098000446100E00461521C082AE5D305600A882E
:10099000FF2A1CD94468002202F108060EFA06F567
:1009A0000E882E40AE420ED196000CFA06F7BC43DC
:1009B00003FA06F7CE783C43282E00D14561CE7865
:1009C000482E00D10561521C082AE5D34460F0BDD1
:1009D000F0B5144C002801DAE36900E06368450DC6
:1009E0002E0185B2C0F30157B540C0F30342032F77
:1009F00005D0C6020AD503269640B34307E023F08C
:100A00007062636823F07063636002E0AB4343F09D
:100A1000706201B12A43002801DAE261F0BD626030
:100A2000F0BD0000000001400246002092680A422A
:100A300000D00120704701617047FEE738B5012101
:100A4000142005F035F901211148FFF7C1FF4FF4DB
:100A50000040ADF800000F4D48248DF80340694672
:100A60002846FFF767FF2021ADF800108DF80340FE
:100A700069460948FFF75EFF0120ADF80000282015
:100A80008DF8030069462846FFF754FF38BD000083
:100A90000002300000080140001001402DE9F04143
:100AA000264C274F274D01264FF4004808B12670E9
:100AB00001E0207878B120213846FFF7B5FF88B1F2
:100AC00041462846FFF7B0FF60B101212846FFF7F5
:100AD000ABFF012806D020213846FFF7A5FF0128EB
:100AE0001DD028E00A2005F001FD00202070202103
:100AF0003846FFF799FF58B141462846FFF794FF63
:100B000048B101212846FFF78FFF012805D012E0E8
:100B10000120BDE8F0810220FBE70320F9E7414610
:100B20002846FFF781FF012805D101212846FFF75C
:100B30007BFF00B926700020EBE7000016000020C4
:100B400000100140000801402DE9F0431C4F06460B
:100B5000002438887D884543B888A0F5D041043901
:100B600002D1B87901280CD00021084604F01AF807
:100B700004F010FC13494FF480774B15124A802083
:100B80001AE00020B8714FF02A08A7F80A804FF049
:100B90002B09A7F80C90014604F004F80120B87165
:100BA000A7F80A90A7F80C80E2E70F614B61166086
:100BB000486108610B61641CAC42F6D3BDE8F08368
:100BC000D4010020001001400C0C01402DE9F04F31
:100BD0004A492A232B24898845F2105A4FF4305B66
:100BE0004FF4285E4FF448754FF0F00C49F241394C
:100BF0004FF4A07745F210364FF4F07280B13F48C1
:100C00004FF00108494580F806800780A0F802C02F
:100C100001D0B1423ED12C2505814381848157E02A
:100C200036484FF00008494580F80680A0F800C01B
:100C3000478006D0A1F5D04CBCF1040C01D0B142E4
:100C40000CD12C2505814381A1F5D0438481043B3F
:100C500001D0B14244D10780428041E0514507D1E3
:100C6000A0F808B0A0F80AE04FF42C5181810EE002
:100C7000A1F5C856633E06D0222101812021418181
:100C8000212181812CE02C210181448183810280FA
:100C9000458025E0A1F5D04CBCF1040C09D05145AC
:100CA0000BD1A0F808B0A0F80AE04FF42C538381D0
:100CB00021E02C250581448109E0A1F5C85CBCF147
:100CC000630C12D0222303812123438120238381BB
:100CD000A1F5D043043B01D0B14201D1028047804D
:100CE000BDE8F04F002003F0E3BD4FF02C0CA0F85E
:100CF00008C04381848105804280E9E7D401002057
:100D00002DE9F74F05468F4881B0DFF83CA2818876
:100D100002982F0A00F0FF094FEA1028E8B200906D
:100D20008848A1F513424FF4807B40894FF4007648
:100D3000413A17D0834CA1F5A642103A12D0B2F531
:100D4000007236D02246A1F5C85793791288521BFB
:100D5000521E633F63D0A1F5D047043F7ED0012BE4
:100D60007DD0D1E004F004FB784CC4F810B066618B
:100D7000CAF800708025656125612661C4F810B04D
:100D800066610098CAF800006561256126616D48BA
:100D9000808904F0EDFAC4F810B066615146CAF8D3
:100DA0000080656125612661C4F810B0666148461F
:100DB00031E004F0DDFA654CC4F810B06661CAF8A1
:100DC000007080256561256126615E484089401C70
:100DD00080B204F0CDFAC4F810B066610098CAF889
:100DE00000006561256126615648808904F0C0FADB
:100DF000C4F810B06661CAF800806561256126619B
:100E000050488089401C80B204F0B2FAC4F810B097
:100E100066614846514608606561256171E003B925
:100E200095B204F0A5FA494CC4F810B06661280ADE
:100E3000CAF800008027676127612661C4F810B0F6
:100E40006661E9B2CAF80010676127612661C4F8DB
:100E500010B06661CAF80000676101E024E052E06A
:100E600027612661C4F810B06661CAF80010676196
:100E7000276126613348808904F07AFAC4F810B0FB
:100E800066615146CAF80080676127612661C4F82F
:100E900010B06661CAF80090676127612661C4F8E6
:100EA00010B06661404621E0012B00D195B204F0FC
:100EB0005FFA264CC4F810B06661290ACAF800101F
:100EC0008027676127612661C4F810B06661E9B2C6
:100ED000CAF800106761276126611A48808904F00A
:100EE00047FAC4F810B06661404651460860676131
:100EF00027612661C4F810B06661C1F8009067618F
:100F00002761266107E095B2294604F049FAA089D5
:100F1000029904F045FA0D48C0F814B04661094939
:100F20000989CAF800108021416101610661C0F899
:100F300010B04661039BCAF800304161016106614F
:100F4000BDE8FF8FD40100200C0C014000100140CF
:100F50002DE9F84F264D81469846A8880A9EA0F5AF
:100F6000D043043B02D1A87901280AD0A2EB0900A2
:100F7000401C85B20C461F4F4FF4007A4FF0800B97
:100F800032E02B880846991A0024AC712A24A3EB7E
:100F900009036C812B27491E5B1EAF8189B2424633
:100FA0009BB20096FFF7D4FF0120A8716F81AC813E
:100FB000BDE8F88F2146484603F0F4FD04F0EAF955
:100FC00000204FF4807C53460B4A594608E0C7F88E
:100FD00010C07B611660796139613B61401C80B251
:100FE000A842F4D3641CA4B24445E3D9E0E700006E
:100FF000D4010020001001400C0C01402DE9F84FF5
:101000000121192004F054FE0121FE48FFF7E0FC05
:101010004FF4F860ADF8000010208DF803000320B5
:101020008DF802006946F848FFF784FC4FF4F86138
:10103000F548FFF700FDF54D4FF6FF74ADF80040A1
:1010400069462846FFF776FC21462846FFF7F3FC61
:10105000322005F04BFA0121002004F0A1F93220E2
:1010600005F044FA002003F0CDFBE94D4FF4807405
:1010700049F24138A88046F6040945F2103A45F293
:101080001056FF2806D3A0F57F41FF3902D0B0F5F6
:10109000134F6DD1D32004F06BF903F07BFB03F009
:1010A00079FB03F077FB4FF6FF7707EA0020A88073
:1010B00003F070FBA9880843A880404558D0BF20A2
:1010C00004F056F903F066FB03F064FB03F062FBE7
:1010D00003F060FB07EA0020A88003F05BFBA9880F
:1010E0000843A880484543D0D42004F041F903F0D8
:1010F00051FB03F04FFB03F04DFB07EA0020A880F3
:1011000003F048FBA9880843A880504530D04FF42D
:101110005A4004F02DF903F03DFB4FF45B4004F01E
:1011200027F903F037FB07EA0020A8804FF45C4062
:1011300004F01EF903F02EFBA9880843A880B0F53F
:10114000004F7DD0B04213D0A12004F011F903F07C
:1011500021FBA88003F01EFB07EA0020A88003F013
:1011600019FBA9880843A0F5AE41A880613968D071
:1011700080B2404566D1CF2004F0FAF8002004F098
:10118000E5F8C12004F0E2F8302004F0DFF8ED20AB
:1011900004F0EEF8642004F0D9F8032004F0D6F847
:1011A000122004F0D3F8812004F0D0F8E82004F0F5
:1011B000DFF8852004F0CAF8102004F0C7F87A2080
:1011C00004F0C4F8CB2004F0D3F8392004F0BEF8C2
:1011D0002C2004F0BBF8002004F0B8F8342004F010
:1011E000B5F8022004F0B2F8F72004F0C1F820208E
:1011F00004F0ACF8EA2004F0BBF8002004F0A6F8F4
:10120000002004F0A3F8C02004F0B2F81B2004F082
:101210009DF8C12004F0ACF8012004F097F8C52037
:1012200004F0A6F8302004F091F8302004F08EF895
:10123000C72004F09DF8B72004F088F8362002E0BB
:10124000B1E0ABE0B2E004F093F8482004F07EF89F
:101250003A2004F08DF8552004F078F8B12004F01D
:1012600087F8002004F072F81A2004F06FF8B62016
:1012700004F07EF80A2004F069F8A22004F066F871
:10128000F22004F075F8002004F060F8262004F045
:101290006FF8012004F05AF8E02004F069F80F20FC
:1012A00004F054F82A2004F051F8282004F04EF8F5
:1012B000082004F04BF80E2004F048F8082004F051
:1012C00045F8542004F042F8A92004F03FF84320E8
:1012D00004F03CF80A2004F039F80F2004F036F846
:1012E000002004F033F8002004F030F8002004F06F
:1012F0002DF8002004F02AF8E12004F039F800204D
:1013000004F024F8152004F021F8172004F01EF84A
:10131000072004F01BF8112004F018F8062004F050
:1013200015F82B2004F012F8562004F00FF83C209A
:1013300004F00CF8052004F009F8102004F006F879
:101340000F2004F003F83F2004F000F83F2003F0E2
:10135000FDFF0F2003F0FAFF2B2004F009F8002016
:1013600003F0F4FF002003F0F1FF012003F0EEFF93
:101370003F2003F0EBFF2A2003F0FAFF002003F0E8
:10138000E5FF002003F0E2FF002003F0DFFFEF2085
:1013900003F0DCFF112003F0EBFFB7E041F6631030
:1013A000A88003F069B8AE8001F034B848457DD11B
:1013B000112003F0DDFF142005F098F8D02003F091
:1013C000D7FF072003F0C2FF422003F0BFFF1D201C
:1013D00003F0BCFFD12003F0CBFF002003F0B6FFE9
:1013E0001A2003F0B3FF092003F0B0FFD22003F06E
:1013F000BFFF012003F0AAFF222003F0A7FFC020B7
:1014000008E000000002300000100140000C014024
:10141000D401002003F0ACFF102003F097FF3B2025
:1014200003F094FF002003F091FF022003F08EFFF1
:10143000112003F08BFFC52003F09AFF032003F077
:1014400085FFC82003F094FF002003F07FFF2520D4
:1014500003F07CFF212003F079FF052003F076FFE5
:10146000002003F073FF0A2003F070FF652003F0F3
:101470006DFF252003F06AFF772003F067FF5020FF
:1014800003F064FF0F2003F061FF002003F05EFF14
:10149000F82003F06DFF012003F058FFFE2003F059
:1014A00067FF002003F052FF022000E034E003F069
:1014B0004DFF202003F05CFF362003F059FF082089
:1014C00003F044FF3A2003F053FF552003F03EFFA2
:1014D0002B2003F04DFF002003F038FF002003F025
:1014E00035FF012003F032FF3F2003F02FFF2A20B9
:1014F00003F03EFF002003F029FF002003F026FF49
:10150000012003F023FFDF2003F020FF782004F008
:10151000EDFF292001F0FBBE50457CD1ED2003F00A
:1015200027FF012003F012FFFE2003F00FFFEE2043
:1015300003F01EFFDE2003F009FF212003F006FF69
:10154000F12003F015FF012003F000FFDF2003F07E
:101550000FFF102003F0FAFEC42003F009FF8F20D4
:1015600003F0F4FEC62003F003FF002003F0EEFEBC
:10157000E22003F0EBFEE22003F0E8FEE22003F0BD
:10158000E5FEBF2003F0F4FEAA2003F0DFFEB0204A
:1015900003F0EEFE0D2003F0D9FE002003F0D6FE8E
:1015A0000D2003F0D3FE002003F0D0FE112003F045
:1015B000CDFE002003F0CAFE192003F0C7FE002074
:1015C00003F0C4FE212003F0C1FE002003F0BEFEA4
:1015D0002D2003F0BBFE002003F0B8FE3D2003F0F9
:1015E000B5FE002003F0B2FE5D2003F0AFFE002048
:1015F00003F0ACFE5D2003F0A9FE002003F0A6FE80
:10160000B12003F0B5FE802003F0A0FE002003F01F
:101610009DFE8B2000E0FCE303F098FE002003F029
:1016200095FE962003F092FE002003F08FFEB2207C
:1016300003F09EFE002003F089FE002003F086FEEA
:10164000022003F083FE002003F080FE032003F05D
:101650007DFE002003F07AFEB32003F089FE002017
:1016600003F074FE002003F071FE002003F06EFE14
:10167000002003F06BFE002003F068FE002003F062
:1016800065FE002003F062FE002003F05FFE0020F4
:1016900003F05CFE002003F059FE002003F056FE2C
:1016A000002003F053FE002003F050FE002003F062
:1016B0004DFE002003F04AFE002003F047FE00200C
:1016C00003F044FE002003F041FE002003F03EFE44
:1016D000002003F03BFE002003F038FE002003F062
:1016E00035FE002003F032FE002003F02FFEB42070
:1016F00003F03EFE8B2003F029FE002003F026FEBF
:10170000962003F023FE002003F020FEA12003F02A
:101710001DFE002003F01AFEB52003F029FE022072
:1017200003F014FE002003F011FE032003F00EFE70
:10173000002003F00BFE042003F008FE002003F05D
:1017400005FEB62003F014FE002003F0FFFD00208C
:1017500003F0FCFDB72003F00BFE002003F0F6FDC4
:10176000002003F0F3FD3F2003F0F0FD002003F024
:10177000EDFD5E2003F0EAFD002003F0E7FD6420AC
:1017800003F0E4FD002003F0E1FD8C2003F0DEFD1A
:10179000002003F0DBFDAC2003F0D8FD002003F0B7
:1017A000D5FDDC2003F0D2FD002003F0CFFD70203A
:1017B00003F0CCFD002003F0C9FD902003F0C6FD2E
:1017C000002003F0C3FDEB2003F0C0FD002003F078
:1017D000BDFDDC2003F0BAFD002003F0B7FDB8200A
:1017E00003F0C6FD002003F0B1FD002003F0AEFDC4
:1017F000002003F0ABFD002003F0A8FD002003F063
:10180000A5FD002003F0A2FD002003F09FFD0020B5
:1018100003F09CFDBA2003F0ABFD242003F096FDFD
:10182000002003F093FD002003F090FD002003F062
:101830008DFDC12003F09CFD202003F087FD0020DA
:1018400003F084FD542003F081FD002003F07EFDB1
:10185000FF2003F07BFD002003F078FDC22003F0A1
:1018600087FD0A2003F072FD002003F06FFD0420C5
:1018700003F06CFD002003F069FDC32003F078FD48
:101880003C2003F063FD002003F060FD3A2003F0EC
:101890005DFD002003F05AFD392003F057FD0020C4
:1018A00003F054FD372003F051FD002003F04EFDFE
:1018B0003C2003F04BFD002003F048FD362003F0F0
:1018C00045FD002003F042FD322003F03FFD0020E3
:1018D00003F03CFD2F2003F039FD002003F036FD1E
:1018E0002C2003F033FD002003F030FD292003F00D
:1018F0002DFD002003F02AFD262003F027FD002007
:1019000003F024FD242003F021FD002003F01EFD40
:10191000242003F01BFD002003F018FD232003F01A
:1019200015FD002003F012FD3C2003F00FFD002008
:1019300003F00CFD362003F009FD002003F006FD46
:10194000322003F003FD002003F000FD2F2003F000
:10195000FDFC002003F0FAFC2C2003F0F7FC002033
:1019600003F0F4FC292003F0F1FC002003F0EEFC6E
:10197000262003F0EBFC002003F0E8FC242003F019
:10198000E5FC002003F0E2FC242003F0DFFC002053
:1019900003F0DCFC232003F0D9FC002003F0D6FC8C
:1019A000C42003F0E5FC622003F0D0FC002003F02B
:1019B000CDFC052003F0CAFC002003F0C7FC842006
:1019C00003F0C4FC002003F0C1FCF02003F0BEFCD7
:1019D000002003F0BBFC182003F0B8FC002003F04B
:1019E000B5FCA42003F0B2FC002003F0AFFC1820EB
:1019F00003F0ACFC002003F0A9FC502003F0A6FC8F
:101A0000002003F0A3FC0C2003F0A0FC002003F056
:101A10009DFC172003F09AFC002003F097FC952012
:101A200003F094FC002003F091FCF32003F08EFC03
:101A3000002003F08BFCE62003F088FC002003F07C
:101A400085FCC52003F094FC322003F07FFC0020CD
:101A500003F07CFC442003F079FC002003F076FCCA
:101A6000652003F073FC002003F070FC762003F087
:101A70006DFC002003F06AFC882003F067FC002066
:101A800003F064FCC62003F073FC202003F05EFC2E
:101A9000002003F05BFC172003F058FC002003F04B
:101AA00055FC012003F052FC002003F04FFCC7203E
:101AB00003F05EFC002003F049FC002003F046FC2C
:101AC000002003F043FC002003F040FCC82003F09A
:101AD0004FFC002003F03AFC002003F037FC00200C
:101AE00003F034FC002003F031FCC92003F040FC7B
:101AF000002003F02BFC002003F028FC002003F062
:101B000025FC002003F022FC002003F01FFC002035
:101B100003F01CFC002003F019FC002003F016FC6D
:101B2000002003F013FC002003F010FC002003F061
:101B30000DFC002003F00AFC002003F007FC00204D
:101B400003F004FC002003F001FC002003F0FEFB86
:101B5000E02003F00DFC162003F0F8FB002003F05A
:101B6000F5FB1C2003F0F2FB002003F0EFFB21202B
:101B700003F0ECFB002003F0E9FB362003F0E6FB6A
:101B8000002003F0E3FB462003F0E0FB002003F01D
:101B9000DDFB522003F0DAFB002003F0D7FB6420CA
:101BA00003F0D4FB002003F0D1FB7A2003F0CEFB3E
:101BB000002003F0CBFB8B2003F0C8FB002003F0D8
:101BC000C5FB992003F0C2FB002003F0BFFBA82057
:101BD00003F0BCFB002003F0B9FBB92003F0B6FB17
:101BE000002003F0B3FBC42003F0B0FB002003F09F
:101BF000ADFBCA2003F0AAFB002003F0A7FBD22014
:101C000003F0A4FB002003F0A1FBD92003F09EFB0E
:101C1000002003F09BFBE02003F098FB002003F082
:101C200095FBF32003F092FB002003F08FFBE120F3
:101C300003F09EFB162003F089FB002003F086FBD7
:101C40001C2003F083FB002003F080FB222003F024
:101C50007DFB002003F07AFB362003F077FB0020A9
:101C600003F074FB452003F071FB002003F06EFBD2
:101C7000522003F06BFB002003F068FB642003F0AC
:101C800065FB002003F062FB7A2003F05FFB00207D
:101C900003F05CFB8B2003F059FB002003F056FBA4
:101CA000992003F053FB002003F050FBA82003F021
:101CB0004DFB002003F04AFBB92003F047FB002056
:101CC00003F044FBC42003F041FB002003F03EFB83
:101CD000CA2003F03BFB002003F038FBD22003F0C6
:101CE00035FB002003F032FBD82003F02FFB00204F
:101CF00003F02CFBE02003F029FB002003F026FB7F
:101D0000F32003F023FB002003F020FBE22003F08C
:101D10002FFB052003F01AFB002003F017FB0B201C
:101D200003F014FB002003F011FB1B2003F00EFB5B
:101D3000002003F00BFB342003F008FB002003F02D
:101D400005FB442003F002FB002003F0FFFA4F20C4
:101D500003F0FCFA002003F0F9FA612003F0F6FA30
:101D6000002003F0F3FA792003F0F0FA002003F0EA
:101D7000EDFA882003F0EAFA002003F0E7FA972052
:101D800003F0E4FA002003F0E1FAA62003F0DEFA03
:101D9000002003F0DBFAB72003F0D8FA002003F0AC
:101DA000D5FAC22003F0D2FA002003F0CFFAC72000
:101DB00003F0CCFA002003F0C9FAD12003F0C6FAF0
:101DC000002003F0C3FAD62003F0C0FA002003F08D
:101DD000BDFADD2003F0BAFA002003F0B7FAF320D1
:101DE00003F0B4FA002003F0B1FAE32003F0C0FAE4
:101DF000052003F0ABFA002003F0A8FA0A2003F054
:101E0000A5FA002003F0A2FA1C2003F09FFA00209C
:101E100000E0FDE203F09AFA332003F097FA002085
:101E200003F094FA442003F091FA002003F08EFAB4
:101E3000502003F08BFA002003F088FA622003F0B0
:101E400085FA002003F082FA782003F07FFA002060
:101E500003F07CFA882003F079FA002003F076FA88
:101E6000972003F073FA002003F070FAA62003F025
:101E70006DFA002003F06AFAB72003F067FA002039
:101E800003F064FAC22003F061FA002003F05EFA66
:101E9000C72003F05BFA002003F058FAD12003F0CA
:101EA00055FA002003F052FAD52003F04FFA002033
:101EB00003F04CFADD2003F049FA002003F046FA63
:101EC000F32003F043FA002003F040FAE42003F08B
:101ED0004FFA012003F03AFA002003F037FA01200C
:101EE00003F034FA002003F031FA022003F02EFA56
:101EF000002003F02BFA2A2003F028FA002003F038
:101F000025FA3C2003F022FA002003F01FFA4B20B0
:101F100003F01CFA002003F019FA5D2003F016FA12
:101F2000002003F013FA742003F010FA002003F0ED
:101F30000DFA842003F00AFA002003F007FA932038
:101F400003F004FA002003F001FAA22003F0FEF9E6
:101F5000002003F0FBF9B32003F0F8F9002003F0B0
:101F6000F5F9BE2003F0F2F9002003F0EFF9C420E8
:101F700003F0ECF9002003F0E9F9CD2003F0E6F9D5
:101F8000002003F0E3F9D32003F0E0F9002003F090
:101F9000DDF9DD2003F0DAF9002003F0D7F9F320B2
:101FA00003F0D4F9002003F0D1F9E52003F0E0F9C3
:101FB000002003F0CBF9002003F0C8F9002003F063
:101FC000C5F9002003F0C2F9022003F0BFF9002098
:101FD00003F0BCF9292003F0B9F9002003F0B6F9A9
:101FE0003C2003F0B3F9002003F0B0F94B2003F0DC
:101FF000ADF9002003F0AAF95D2003F0A7F9002055
:1020000003F0A4F9742003F0A1F9002003F09EF975
:10201000842003F09BF9002003F098F9932003F04B
:1020200095F9002003F092F9A22003F08FF9002027
:1020300003F08CF9B32003F089F9002003F086F94E
:10204000BE2003F083F9002003F080F9C42003F0E0
:102050007DF9002003F07AF9CD2003F077F9002014
:1020600003F074F9D32003F071F9002003F06EF946
:10207000DC2003F06BF9002003F068F9F32003F093
:1020800065F9002003F062F9E62003F071F91120F0
:1020900003F05CF9002003F059F9342003F056F9FD
:1020A000002003F053F9562003F050F9002003F00C
:1020B0004DF9762003F04AF9002003F047F9772024
:1020C00003F044F9002003F041F9662003F03EF9E3
:1020D000002003F03BF9882003F038F9002003F0DA
:1020E00035F9992003F032F9002003F02FF9BB20D5
:1020F00003F02CF9002003F029F9992003F026F9C8
:10210000002003F023F9662003F020F9002003F0FB
:102110001DF9552003F01AF9002003F017F9552096
:1021200003F014F9002003F011F9452003F00EF933
:10213000002003F00BF9432003F008F9002003F01E
:1021400005F9442003F002F9002003F0FFF8E7202E
:1021500003F00EF9322003F0F9F8002003F0F6F84E
:10216000552003F0F3F8002003F0F0F8762003F098
:10217000EDF8002003F0EAF8662003F0E7F800200D
:1021800003F0E4F8672003F0E1F8002003F0DEF844
:10219000672003F0DBF8002003F0D8F8872003F075
:1021A000D5F8002003F0D2F8992003F0CFF80020F2
:1021B00003F0CCF8BB2003F0C9F8002003F0C6F808
:1021C000992003F0C3F8002003F0C0F8772003F053
:1021D000BDF8002003F0BAF8442003F0B7F800205F
:1021E00003F0B4F8562003F0B1F8002003F0AEF885
:1021F000232003F0ABF8002003F0A8F8332003F00D
:10220000A5F8002003F0A2F8452003F09FF8002075
:1022100003F09CF8E82003F0ABF8002003F096F8F8
:10222000002003F093F8992003F090F8002003F0C9
:102230008DF8872003F08AF8002003F087F88820C3
:1022400003F084F8002003F081F8772003F07EF893
:10225000002003F07BF8662003F078F8002003F0FC
:1022600075F8882003F072F8002003F06FF8AA20B8
:1022700003F06CF8002003F069F8BB2003F066F867
:10228000002003F063F8992003F060F8002003F0C9
:102290005DF8662003F05AF8002003F057F8552047
:1022A00003F054F8002003F051F8552003F04EF8E5
:1022B000002003F04BF8442003F048F8002003F01E
:1022C00045F8442003F042F8002003F03FF8552081
:1022D00003F03CF8002003F039F8E92003F048F857
:1022E000AA2003F033F8002003F030F8002003F0B8
:1022F0002DF8002003F02AF8002003F039F8AA2076
:1023000003F024F8CF2003F033F8002003F01EF888
:10231000002003F01BF8002003F018F8002003F061
:1023200015F8002003F012F8002003F00FF8002049
:1023300003F00CF8002003F009F8002003F006F881
:10234000002003F003F8002003F000F8002002F062
:10235000FDFF002002F0FAFF002002F0F7FF00204E
:1023600002F0F4FF002002F0F1FF002002F0EEFF87
:10237000F02002F0FDFF002002F0E8FF502002F004
:10238000E5FF002002F0E2FF002002F0DFFF002066
:1023900002F0DCFFF32002F0EBFF002002F0D6FF9A
:1023A000F92002F0E5FF062002F0D0FF102002F035
:1023B000CDFF292002F0CAFF002002F0C7FF3A201B
:1023C00002F0D6FF552002F0C1FF112002F0D0FF2D
:1023D000642004F08BF8292002F0CAFF352002F0B7
:1023E000C7FF002002F0B2FF512002F0C1FFFF2022
:1023F00002F0ACFF532002F0BBFF2C2002F0A6FF3E
:10240000552002F0B5FF822002F0A0FF2C20FCE353
:10241000B0427DD14FF470445521204602F0C0FFF8
:10242000651CAA21284602F0BBFFA61C522130469B
:1024300002F0B6FFE71C0821384602F0B1FF4FF268
:1024400004080121404602F0ABFF0D214FF430405B
:1024500002F0A6FF0D214BF2010002F0A1FF0D21B9
:102460004BF2020002F09CFF4FF4364934214846FB
:1024700002F096FF34214BF2016002F091FF34210B
:102480004BF2026002F08CFF4FF4314A0D215046AE
:1024900002F086FF4BF2011B0D21584602F080FF2F
:1024A0000D214BF2021002F07BFF34214FF4374034
:1024B00002F076FF34214BF2017002F071FF3421FB
:1024C0004BF2027002F06CFF00214FF4324002F038
:1024D00067FF00214BF2012002F062FF00214BF266
:1024E000022002F05DFF24214FF4384002F058FF33
:1024F00024214BF6010002F053FF24214BF6020089
:1025000002F04EFF01214FF43F4002F049FF00E08E
:10251000FEE30F214FF4334002F042FF0F214BF254
:10252000013002F03DFF0F214BF2023002F038FF84
:1025300034214FF4394002F033FF34214BF60110BF
:1025400002F02EFF34214BF6021002F029FF082181
:102550004FF4354002F024FF08214BF2015002F005
:102560001FFF08214BF2025002F01AFF03214FF423
:10257000424002F015FF24214FF43A4002F010FFD0
:1025800024214BF6012002F00BFF24214BF6022000
:1025900002F006FF00214FF43C4002F001FF7821D9
:1025A0004BF6014002F0FCFE00214BF6024002F027
:1025B000F7FE00214FF43D4002F0F2FE78214BF689
:1025C000015002F0EDFE00214BF6025002F0E8FE51
:1025D00000214FF43E4002F0E3FE64214BF601601F
:1025E00002F0DEFE00214FF4514002F0D9FE33210B
:1025F0004DF2011002F0D4FE00214DF2021002F063
:10260000CFFE34214DF2031002F0CAFE00214DF23C
:10261000041002F0C5FE3A214DF2051002F0C0FE92
:1026200000214DF2061002F0BBFE4A214DF20710C8
:1026300002F0B6FE00214DF2081002F0B1FE5C215E
:102640004DF2091002F0ACFE00214DF20A1002F02A
:10265000A7FE81214DF20B1002F0A2FE00214DF2E7
:102660000C1002F09DFEA6214DF20D1002F098FE16
:1026700000214DF20E1002F093FEE5214DF20F10F5
:1026800002F08EFE01214DF2101002F089FE13219E
:102690004DF2111002F084FE01214DF2121002F0F1
:1026A0007FFE54214DF2131002F07AFE01214DF20B
:1026B000141002F075FE82214DF2151002F070FE2A
:1026C00001214DF2161002F06BFECA214DF21710D7
:1026D00002F066FE02214DF2181002F061FE0021A8
:1026E0004DF2191002F05CFE02214DF21A1002F0B8
:1026F00057FE01214DF21B1002F052FE02214DF255
:102700001C1002F04DFE34214DF21D1002F048FE67
:1027100002214DF21E1002F043FE67214DF21F1000
:1027200002F03EFE02214DF2201002F039FE84211B
:102730004DF2211002F034FE02214DF2221002F07F
:102740002FFEA4214DF2231002F02AFE02214DF2A9
:10275000241002F025FEB7214DF2251002F020FED4
:1027600002214DF2261002F01BFECF214DF2271060
:1027700002F016FE02214DF2281002F011FEDE21B9
:102780004DF2291002F00CFE02214DF22A1002F047
:1027900007FEF2214DF22B1002F002FE02214DF253
:1027A0002C1002F0FDFDFE214DF22D1002F0F8FD7F
:1027B00003214DF22E1002F0F3FD10214DF22F10E7
:1027C00002F0EEFD03214DF2301002F0E9FD33215D
:1027D0004DF2311002F0E4FD03214DF2321002F00F
:1027E000DFFD6D214DF2331002F0DAFD00214FF4D0
:1027F000524002F0D5FD33214DF2012002F0D0FD10
:1028000000214DF2022002F0CBFD34214DF20320D5
:1028100002F0C6FD00214DF2042002F0C1FD3A2174
:102820004DF2052002F0BCFD00214DF2062002F021
:10283000B7FD4A214DF2072002F0B2FD00214DF212
:10284000082002F0ADFD5C214DF2092002F0A8FD48
:1028500000214DF20A2002F0A3FD81214DF20B2050
:1028600002F09EFD00214DF20C2002F099FDA62100
:102870004DF20D2002F094FD00214DF20E2002F0E9
:102880008FFDE5214DF20F2002F08AFD01214DF26E
:10289000102002F085FD13214DF2112002F080FD81
:1028A00001214DF2122002F07BFD54214DF2132044
:1028B00002F076FD01214DF2142002F071FD82211B
:1028C0004DF2152002F06CFD01214DF2162002F0B0
:1028D00067FDCA214DF2172002F062FD02214DF280
:1028E000182002F05DFD00214DF2192002F058FD84
:1028F00002214DF21A2002F053FD01214DF21B205E
:1029000002F04EFD02214DF21C2002F049FD34215F
:102910004DF21D2002F044FD02214DF21E2002F076
:102920003FFD67214DF21F2002F03AFD02214DF2DA
:10293000202002F035FD84214DF2212002F030FDEF
:1029400002214DF2222002F02BFDA4214DF2232082
:1029500002F026FD02214DF2242002F021FDB721D4
:102960004DF2252002F01CFD02214DF2262002F03E
:1029700017FDCF214DF2272002F012FD02214DF26A
:10298000282002F00DFDDE214DF2292002F008FD85
:1029900002214DF22A2002F003FDF2214DF22B20FC
:1029A00002F0FEFC02214DF22C2002F0F9FCFE2187
:1029B0004DF22D2002F0F4FC03214DF22E2002F006
:1029C000EFFC10214DF22F2002F0EAFC03214DF222
:1029D000302002F0E5FC33214DF2312002F0E0FC22
:1029E00003214DF2322002F0DBFC6D214DF2332049
:1029F00002F0D6FC00214FF4534002F0D1FC332109
:102A00004DF2013002F0CCFC00214DF2023002F018
:102A1000C7FC34214DF2033002F0C2FC00214DF21C
:102A2000043002F0BDFC3A214DF2053002F0B8FC52
:102A300000214DF2063002F0B3FC4A214DF207307E
:102A400002F0AEFC00214DF2083002F0A9FC5C213E
:102A50004DF2093002F0A4FC00214DF20A3002F0E0
:102A60009FFC81214DF20B3002F09AFC00214DF2C7
:102A70000C3002F095FCA6214DF20D3002F090FCD6
:102A800000214DF20E3002F08BFCE5214DF20F30AB
:102A900002F086FC01214DF2103002F081FC13217E
:102AA0004DF2113002F07CFC01214DF2123002F0A7
:102AB00077FC54214DF2133002F072FC01214DF2EB
:102AC000143002F06DFC82214DF2153002F068FCEA
:102AD00001214DF2163002F063FCCA214DF217308D
:102AE00002F05EFC02214DF2183002F059FC002188
:102AF0004DF2193002F054FC02214DF21A3002F06E
:102B00004FFC01214DF21B3002F04AFC02214DF234
:102B10001C3002F045FC34214DF21D3002F040FC27
:102B200002214DF21E3002F03BFC67214DF21F30B6
:102B300002F036FC02214DF2203002F031FC8421FB
:102B40004DF2213002F02CFC02214DF2223002F035
:102B500027FCA4214DF2233002F022FC02214DF289
:102B6000243002F01DFCB7214DF2253002F018FC94
:102B700002214DF2263002F013FCCF214DF2273016
:102B800002F00EFC02214DF2283002F009FCDE2199
:102B90004DF2293002F004FC02214DF22A3002F0FD
:102BA000FFFBF2214DF22B3002F0FAFB02214DF235
:102BB0002C3002F0F5FBFE214DF22D3002F0F0FB3F
:102BC00003214DF22E3002F0EBFB10214DF22F309D
:102BD00002F0E6FB03214DF2303002F0E1FB33213D
:102BE0004DF2313002F0DCFB03214DF2323002F0C5
:102BF000D7FB6D214DF2333002F0D2FB00214FF4B0
:102C0000544002F0CDFB332100E080E34DF201405F
:102C100002F0C6FB00214DF2024002F0C1FB34215C
:102C20004DF2034002F0BCFB00214DF2044002F0E3
:102C3000B7FB3A214DF2054002F0B2FB00214DF204
:102C4000064002F0ADFB4A214DF2074002F0A8FB1E
:102C500000214DF2084002F0A3FB5C214DF2094037
:102C600002F09EFB00214DF20A4002F099FB812107
:102C70004DF20B4002F094FB00214DF20C4002F0AB
:102C80008FFBA6214DF20D4002F08AFB00214DF290
:102C90000E4002F085FBE5214DF20F4002F080FB73
:102CA00001214DF2104002F07BFB13214DF2114047
:102CB00002F076FB01214DF2124002F071FB54212B
:102CC0004DF2134002F06CFB01214DF2144002F072
:102CD00067FB82214DF2154002F062FB01214DF2AB
:102CE000164002F05DFBCA214DF2174002F058FB7E
:102CF00002214DF2184002F053FB00214DF2194021
:102D000002F04EFB02214DF21A4002F049FB00E0B6
:102D100001E301214DF21B4002F042FB02214DF282
:102D20001C4002F03DFB34214DF21D4002F038FB07
:102D300002214DF21E4002F033FB67214DF21F408D
:102D400002F02EFB02214DF2204002F029FB8421EB
:102D50004DF2214002F024FB02214DF2224002F00C
:102D60001FFBA4214DF2234002F01AFB02214DF279
:102D7000244002F015FBB7214DF2254002F010FB74
:102D800002214DF2264002F00BFBCF214DF22740ED
:102D900002F006FB02214DF2284002F001FBDE2189
:102DA0004DF2294002F0FCFA02214DF22A4002F0D5
:102DB000F7FAF2214DF22B4002F0F2FA02214DF225
:102DC0002C4002F0EDFAFE214DF22D4002F0E8FA1F
:102DD00003214DF22E4002F0E3FA10214DF22F4074
:102DE00002F0DEFA03214DF2304002F0D9FA33212D
:102DF0004DF2314002F0D4FA03214DF2324002F09C
:102E0000CFFA6D214DF2334002F0CAFA00214FF49F
:102E1000554002F0C5FA33214DF2015002F0C0FADC
:102E200000214DF2025002F0BBFA34214DF2035062
:102E300002F0B6FA00214DF2045002F0B1FA3A2144
:102E40004DF2055002F0ACFA00214DF2065002F0AE
:102E5000A7FA4A214DF2075002F0A2FA00214DF2E2
:102E6000085002F09DFA5C214DF2095002F098FAE8
:102E700000214DF20A5002F093FA81214DF20B50DD
:102E800002F08EFA00214DF20C5002F089FAA621D0
:102E90004DF20D5002F084FA00214DF20E5002F076
:102EA0007FFAE5214DF20F5002F07AFA01214DF23E
:102EB000105002F075FA13214DF2115002F070FA21
:102EC00001214DF2125002F06BFA54214DF21350D1
:102ED00002F066FA01214DF2145002F061FA8221EB
:102EE0004DF2155002F05CFA01214DF2165002F03D
:102EF00057FACA214DF2175002F052FA02214DF250
:102F0000185002F04DFA00214DF2195002F048FA23
:102F100002214DF21A5002F043FA01214DF21B50EA
:102F200002F03EFA02214DF21C5002F039FA34212F
:102F30004DF21D5002F034FA02214DF21E5002F003
:102F40002FFA67214DF21F5002F02AFA02214DF2AA
:102F5000205002F025FA84214DF2215002F020FA8F
:102F600002214DF2225002F01BFAA4214DF223500F
:102F700002F016FA02214DF2245002F011FAB721A4
:102F80004DF2255002F00CFA02214DF2265002F0CB
:102F900007FACF214DF2275002F002FA02214DF23A
:102FA000285002F0FDF9DE214DF2295002F0F8F927
:102FB00002214DF22A5002F0F3F9F2214DF22B508A
:102FC00002F0EEF902214DF22C5002F0E9F9FE2157
:102FD0004DF22D5002F0E4F903214DF22E5002F093
:102FE000DFF910214DF22F5002F0DAF903214DF2F2
:102FF000305002F0D5F933214DF2315002F0D0F9C2
:1030000003214DF2325002F0CBF96D214DF23350D5
:1030100002F0C6F900214FF4564002F0C1F9332105
:103020004DF2016002F0BCF900214DF2026002F0A5
:10303000B7F934214DF2036002F0B2F900214DF2EC
:10304000046002F0ADF93A214DF2056002F0A8F9F2
:1030500000214DF2066002F0A3F94A214DF207600B
:1030600002F09EF900214DF2086002F099F95C210E
:103070004DF2096002F094F900214DF20A6002F06D
:103080008FF981214DF20B6002F08AF900214DF297
:103090000C6002F085F9A6214DF20D6002F080F976
:1030A00000214DF20E6002F07BF9E5214DF20F6038
:1030B00002F076F901214DF2106002F071F913214E
:1030C0004DF2116002F06CF901214DF2126002F034
:1030D00067F954214DF2136002F062F901214DF2BB
:1030E000146002F05DF982214DF2156002F058F98A
:1030F00001214DF2166002F053F9CA214DF217601A
:1031000002F04EF902214DF2186002F049F9002157
:103110004DF2196002F044F902214DF21A6002F0FA
:103120003FF901214DF21B6002F03AF902214DF204
:103130001C6002F035F934214DF21D6002F030F9C7
:1031400002214DF21E6002F02BF967214DF21F6043
:1031500002F026F902214DF2206002F021F98421CB
:103160004DF2216002F01CF902214DF2226002F0C2
:1031700017F9A4214DF2236002F012F902214DF259
:10318000246002F00DF9B7214DF2256002F008F934
:1031900002214DF2266002F003F9CF214DF22760A3
:1031A00002F0FEF802214DF2286002F0F9F8DE216B
:1031B0004DF2296002F0F4F802214DF22A6002F08B
:1031C000EFF8F2214DF22B6002F0EAF802214DF205
:1031D0002C6002F0E5F8FE214DF22D6002F0E0F8DF
:1031E00003214DF22E6002F0DBF810214DF22F602A
:1031F00002F0D6F803214DF2306002F0D1F833210D
:103200004DF2316002F0CCF803214DF2326002F051
:10321000C7F86D214DF2336002F0C2F85521204607
:1032200002F0BEF8AA21284602F0BAF85221304630
:1032300002F0B6F80821384602F0B2F80021404604
:1032400002F0AEF8CC21504602F0AAF80021584610
:1032500002F0A6F80521484602F0A2F870214FF4CA
:10326000374002F09DF870214BF2017002F098F89F
:1032700001214FF4384002F093F803214BF601008E
:1032800002F08EF803214BF6020002F089F80321C8
:103290004BF6030002F084F802214FF43C4002F0A8
:1032A0007FF800214BF6014002F07AF800214BF63E
:1032B000024002F075F8D0214FF4494002F070F856
:1032C00002214CF6011002F06BF850214CF602106E
:1032D00002F066F850214CF6031002F061F850211C
:1032E0004CF6041002F05CF800214FF4545002F048
:1032F00057F855214FF4685002F052F84FF48850B7
:1033000002F036F8782003F00BF94FF4245002F065
:103310002FF801F02CBAA0F513414FF4E06740F20A
:10332000022A40F23F154FF4274925392BD0FE1DC4
:103330004FF40178C91E7DD04FF4887B4FF41C599F
:10334000083178D0113977D0A0F5A841083974D068
:10335000A0F5A8514FF4407B05396FD0B1F520415D
:103360006DD0B1F580516BD0A0F50941893968D095
:10337000A0F58A4131397DD0091F7CD0A0F5C85114
:10338000633979D0C5E747F6F001E52002F008F887
:103390002146012002F004F83946022002F000F82C
:1033A00041F23001032001F0FBFF0021042001F075
:1033B000F7FF5146082001F0F3FF0021092001F03A
:1033C000EFFF00210A2001F0EBFF00210C2001F0AB
:1033D000E7FF00210D2001F0E3FF00210F2001F0A5
:1033E000DFFF0021102001F0DBFF0721112001F099
:1033F000D7FF0021122001F0D3FF0021132001F09C
:10340000CFFF0021072001F0CBFF41F29061102097
:1034100001F0C6FF40F22721112001F0C1FF9D21DC
:10342000122001F0BDFF4FF4C851132001F0B8FF86
:10343000252107E07FE028E1CBE19DE237E3FDE3D2
:10344000FDE3FDE3292001F0ABFF0D212B2001F06E
:10345000A7FF0721302001F0A3FF40F20331312004
:1034600001F09EFF0321322001F09AFF40F2062175
:10347000352002E0FEE3FEE3FEE301F091FF0821C8
:10348000362001F08DFF40F20641372001F088FF21
:103490004FF44171382001F083FF0721392001F0FA
:1034A0007FFF40F202613C2001F07AFF08213D20BD
:1034B00001F076FF0021502001F072FFEF21512032
:1034C00001F06EFF0021522001F06AFF29465320CF
:1034D00001F066FF4946602001F062FF0121612092
:1034E00001F05EFF00216A2001F05AFF00218020D8
:1034F00001F056FF0021812001F052FF00218220BF
:1035000001F04EFF0021832001F04AFF00218420BA
:1035100001F046FF0021852001F042FF102190209C
:1035200001F03EFF4FF4C061922001F039FF40F2FC
:1035300033110720FEE341F28F01EC2001F030FF50
:1035400041F23421EF2001F02BFF2146012001F050
:1035500027FF3946022001F023FF41F2300103200A
:1035600001F01EFF0021042001F01AFF514608203F
:1035700001F016FF0021092001F012FF00210A20AE
:1035800001F00EFF01210C2001F00AFF00210D20A7
:1035900001F006FF00210F2001F002FF00211020A2
:1035A00001F0FEFE0721112001F0FAFE0021122099
:1035B00001F0F6FE0021132001F0F2FE01210720A8
:1035C00001F0EEFE322002F091FF41F29041102016
:1035D00001F0E6FE40F22721112001F0E1FE322049
:1035E00002F084FF8A21122001F0DAFE322002F07C
:1035F0007DFF4FF4D051132001F0D2FE0621292087
:1036000001F0CEFE0D212B2001F0CAFE322002F087
:103610006DFF0021202001F0C3FE0021212001F0D8
:10362000BFFE322002F062FF0021302001F0B8FE20
:1036300040F20461312001F0B3FE40F20531322046
:1036400001F0AEFE0021352001F0AAFE40F609414E
:10365000362001F0A5FE4146372001F0A1FE40F2E0
:103660000131382001F09CFE3146392001F098FEEE
:1036700000213C2001F094FE40F60A213D2001F09B
:103680008FFE322002F032FF3AE10021084601F0BD
:1036900087FE2146012001F083FE3946022001F019
:1036A0007FFE41F23001032001F07AFE0021042068
:1036B00001F076FE5146082001F072FE002109203B
:1036C00001F06EFE00210A2001F06AFE01210C20AB
:1036D00001F066FE00210D2001F062FE00210F20A6
:1036E00001F05EFE322002F001FF40F201110720DE
:1036F00001F056FE322002F0F9FE4FF48651102000
:1037000001F04EFE0721112001F04AFE5C465946A9
:10371000122001F045FE4FF43061132001F040FE0D
:103720000021292001F03CFE44F210012B2001F081
:1037300037FE0021502001F033FEEF21512001F02F
:103740002FFE0021522001F02BFE2946532001F0CC
:1037500027FE4946602001F023FE0121612001F08F
:103760001FFE00216A2001F01BFE0021802001F0D5
:1037700017FE0021812001F013FE0021822001F0BC
:103780000FFE0021832001F00BFE0021842001F0B8
:1037900007FE0021852001F003FE1021902001F09A
:1037A000FFFD0021922001F0FBFD0121932001F09B
:1037B000F7FD2146952001F0F3FD0021972001F04F
:1037C000EFFD0021982001F0EBFD40F2731107207E
:1037D00079E341F21401E72001F0E2FD21460120E6
:1037E00001F0DEFD4FF40071022001F0D9FD41F23D
:1037F0003801032001F0D4FD5146082001F0D0FD2E
:103800000021092001F0CCFD00210A2001F0C8FDB3
:1038100000210C2001F0C4FD00210D2001F0C0FDAD
:1038200000210F2001F0BCFD0021102001F0B8FDA7
:103830000721112001F0B4FD0021122001F0B0FD9C
:103840000021132001F0ACFDC82002F04FFE41F230
:103850009061102001F0A4FD40F22721112001F019
:103860009FFD322002F042FE0C21122001F098FD53
:10387000322002F03BFE4FF40061132001F090FD76
:103880001121292001F08CFD0B212B2001F088FD56
:10389000322002F02BFE0021202001F081FD29467C
:1038A000212001F07DFD0021302001F079FD4FF451
:1038B00083742146312001F073FD0021322001F094
:1038C0006FFD4146352001F06BFD41F20A61362063
:1038D00001F066FD3146372001F062FD21463820B7
:1038E00001F05EFD3146392001F05AFD40F20241FF
:1038F0003C2001F055FD40F60F413D2001F050FD08
:103900000021502001F04CFDEF21512001F048FD35
:103910000021522001F044FD2946532001F040FDD2
:103920004946602001F03CFD0121612001F038FD95
:1039300000216A2001F034FD0021802001F030FDDB
:103940000021812001F02CFD0021822001F028FDC2
:103950000021832001F024FD0021842001F020FDBE
:103960000021852001F01CFD1021902001F018FDA0
:103970004FF4C0619220FDE32146012001F010FDCB
:103980003946022001F00CFD41F23001032001F024
:1039900007FD0021042001F003FD40F2072108206B
:1039A00001F0FEFC0021092001F0FAFC00210A20B0
:1039B00001F0F6FC00210C2001F0F2FC00210D20AA
:1039C00001F0EEFC00210F2001F0EAFC142002F0CF
:1039D0008DFD41F2B061102001F0E2FC01211120C7
:1039E00001F0DEFC0121172001F0DAFC4FF49C719C
:1039F000122001F0D5FC4FF40061132001F0D0FC3F
:103A00000921292001F0CCFC09212A2001F0C8FC61
:103A10000021A42001F0C4FC0021502001F0C0FCD2
:103A2000EF21512001F0BCFC0021522001F0B8FC34
:103A30002946532001F0B4FC4946602001F0B0FC57
:103A40000121612001F0ACFC00216A2001F0A8FCFA
:103A50000021802001F0A4FC0021812001F0A0FCC5
:103A60000021822001F09CFC0021832001F098FCC1
:103A70000021842001F094FC0021852001F090FCBD
:103A80001321902001F08CFC0021922001F088FC91
:103A90000321932001F084FC5946952001F080FC1D
:103AA00040F27311072001F07BFC32200DE1002170
:103AB000072001F075FC322002F018FD4FF48E71E2
:103AC000122001F06DFC0121A42001F069FC0F21FE
:103AD000082001F065FC08210A2001F061FC0821A2
:103AE0000D2001F05DFC3146302001F059FC07212A
:103AF000312001F055FC40F20361322001F050FC0E
:103B00003946332001F04CFC5146342001F048FC8A
:103B10000221352001F044FC41F60F71362001F0FE
:103B20003FFC3146372001F03BFC0021382001F0FA
:103B300037FC0021392001F033FC31463A2001F0F6
:103B40002FFC00213B2001F02BFC07213C2001F041
:103B500027FC00213D2001F023FC322002F0C6FCAE
:103B60000121072001F01CFC0121172001F018FCA5
:103B7000322002F0BBFC4FF4BD51102001F010FCCC
:103B800040F21721112001F00BFC4FF48F7112202D
:103B900001F006FC4FF47061132001F001FC0021DC
:103BA0002A2001F0FDFB0A21292001F0F9FB4FF446
:103BB0009F71122001F0F4FB0021502001F0F0FB76
:103BC000EF21512001F0ECFB0021522001F0E8FB35
:103BD0002946532001F0E4FB4946602001F0E0FB58
:103BE0000121612001F0DCFB00216A2001F0D8FBFB
:103BF0000021802001F0D4FB0021812001F0D0FBC6
:103C00000021822001F0CCFB0021832001F0C8FBC1
:103C10000021842001F0C4FB0021852001F0C0FBBD
:103C20001321902001F0BCFB5946922001F0B8FB13
:103C30000521932001F0B4FB002102E048E043E1BC
:103C40000AE2952001F0ACFB0021972001F0A8FBCF
:103C50000021982001F0A4FB2146012001F0A0FBE7
:103C60003946022001F09CFB41F23801032001F0AB
:103C700097FB02E0A4E257E3FDE30021042001F0FA
:103C80008FFB00210C2001F08BFB00210F2001F0A5
:103C900087FB0021202001F083FB0021212001F07F
:103CA0007FFB2121072001F07BFB142002F01EFC8A
:103CB0006121072001F074FB142002F017FC40F290
:103CC0007311072001F06CFB142002F00FFC2AE3B3
:103CD0000021084601F064FB0021084601F060FB6A
:103CE0000021084601F05CFB0021084601F058FB6A
:103CF0000121A42001F054FB142002F0F7FB4946F7
:103D0000602001F04DFB56465146082001F048FB6B
:103D10004FF40571302001F043FB43F2157131205F
:103D200001F03EFB40F20461322001F039FB40F625
:103D3000166100E0C3E0332001F032FB42F21121B2
:103D4000342001F02DFB4FF4A851352001F028FB61
:103D500048F20751362001F023FB41F2074137209A
:103D600001F01EFB41F20341382001F019FB202134
:103D7000392001F015FB1A21902001F011FB0021E0
:103D8000102001F00DFB0721112001F009FB00219B
:103D9000122001F005FB0021132001F001FB14208B
:103DA00002F0A4FB4FF4E661102001F0F9FA40F2B2
:103DB0003711112001F0F4FA142002F097FB4FF4B0
:103DC000DC71122001F0ECFA142002F08FFB4FF4AA
:103DD0007061132001F0E4FA80212A2001F0E0FA5A
:103DE0004821292001F0DCFA142002F07FFB214653
:103DF000012001F0D5FA3946022001F0D1FA41F252
:103E00003801032001F0CCFA3146082001F0C8FA4D
:103E100000210A2001F0C4FA00210C2001F0C0FAB0
:103E200000210D2001F0BCFA30210E2001F0B8FA7B
:103E30000021502001F0B4FAEF21512001F0B0FA36
:103E40000021522001F0ACFA2946532001F0A8FAD3
:103E50004946602001F0A4FA0121612001F0A0FA96
:103E600000216A2001F09CFA1121902001F098FABB
:103E70004FF4C061922001F093FA40F20241932086
:103E800001F08EFA0221942001F08AFA142002F047
:103E90002DFB0121072001F083FA142002F026FBFC
:103EA0006121072001F07CFA40F27311072001F034
:103EB00077FA0021202001F073FA0021212001F07F
:103EC0006FFA222100202CE20021084601F068FA56
:103ED0000021084601F064FA142002F007FB0021DB
:103EE000084601F05DFA0021084601F059FA002168
:103EF000084601F055FA0021084601F051FA012167
:103F0000A42001F04DFA142002F0F0FA4946602096
:103F100001F046FA40F60601082001F041FA40F2AD
:103F200003773946302001F03BFA0121312001F0BE
:103F300037FA0421322001F033FA4FF48171332033
:103F400001F02EFA5E465946342001F029FA40F27B
:103F50000311352001F024FA1F21362001F020FA48
:103F60003946372001F01CFA0121382001F018FAF7
:103F70000421392001F014FA1521902001F010FAE3
:103F80004FF48261102001F00BFA40F2472111201A
:103F900001F006FA4FF4DE71122001F001FA4FF43D
:103FA0006061132001F0FCF9782002F09FFA2146AD
:103FB000012001F0F5F94FF40071022001F0F0F951
:103FC00041F23001032001F0EBF908210A2001F051
:103FD000E7F900210C2001F0E3F920210E2001F087
:103FE000DFF900210F2001F0DBF90021202001F092
:103FF000D7F90021212001F0D3F93D212A2001F039
:10400000CFF9142002F072FA2D21292001F0C8F90D
:104010000021502001F0C4F94DF2EF01512001F0D0
:10402000BFF90021522001F0BBF92946532001F0CD
:10403000B7F90021612001F0B3F900216A2001F0F5
:10404000AFF93146922001F0ABF90521932001F040
:10405000A7F92146FFF7BBBB0121002001F0A0F921
:104060004AF6A401032001F09BF900210C2001F085
:1040700097F940F60C010D2001F092F94FF42C5104
:104080000E2001F08DF9B0211E2001F089F942F6D1
:104090003F31012001F084F94FF4C061022001F0AA
:1040A0007FF90021102001F07BF946F27801112000
:1040B00001F076F90021052001F072F900210620B7
:1040C00001F06EF94EF61C71162001F069F903211A
:1040D000172001F065F940F23321072001F060F963
:1040E00000210B2001F05CF900210F2001F058F9AC
:1040F0000021412001F054F90021422001F050F943
:104100000021482001F04CF92946492001F048F9E6
:1041100000214A2001F044F900214B2001F040F930
:104120004FF46F41442001F03BF90021452001F09C
:1041300037F92946462001F033F93146302001F0A5
:104140002FF944464146312001F02AF92146322018
:1041500001F026F940F202552946332001F020F9FA
:10416000691D342001F01CF92146352001F018F9B1
:10417000214600E07AE1362001F012F92946372085
:1041800001F00EF940F2023421463A2001F008F91C
:1041900021463B2001F004F90021232001F000F921
:1041A0000021242001F0FCF84FF40041252001F00B
:1041B000F7F800214F2001F0F3F800214E20B0E085
:1041C0000121002001F0ECF80A2002F08FF941F201
:1041D0002861102001F0E4F80E21122001F0E0F82F
:1041E00040F63921132001F0DBF80A2002F07EF9B5
:1041F0004021112001F0D4F85021152001F0D0F811
:104200000A2002F073F91E21122001F0C9F80A20D9
:1042100002F06CF94FF4B151102001F0C1F842F6F0
:104220003921132001F0BCF80A2002F05FF9214681
:10423000012001F0B5F85946022001F0B1F841F231
:104240003801032001F0ACF85146082001F0A8F82D
:1042500008210A2001F0A4F80021302001F0A0F884
:1042600040F20241312001F09BF84FF4837132207B
:1042700001F096F840F20351332001F091F84FF429
:104280008271342001F08CF840F20131352001F0C8
:1042900087F83146362001F083F840F205313720A7
:1042A00001F07EF84FF40271382001F079F840F601
:1042B0000B71392001F074F80221412001F070F8EF
:1042C0004946602001F06CF80121612001F068F896
:1042D0004FF40471902001F063F84FF4857192203F
:1042E00001F05EF80421932001F05AF82146A02045
:1042F00001F056F80121072001F052F82121072092
:1043000001F04EF82321072001F04AF8332107205D
:1043100001F046F840F23311072001F041F8002186
:10432000A02001F03DF822E23021152001F038F8FC
:1043300010219A2001F034F82021112001F030F8EA
:1043400043F22841102001F02BF80221122001F045
:1043500027F841F23801132001F022F8282002F05A
:10436000C5F81221084601F01BF8282002F0BEF81B
:1043700043F22041102001F013F843F238011320DA
:1043800001F00EF8462002F0B1F80021302001F0D3
:1043900007F840F20241312001F002F840F2073103
:1043A000322000F0FDFF4FF44171332000F0F8FFA0
:1043B0000421342000F0F4FF40F20141352000F0E8
:1043C000EFFF3146362000F0EBFF40F20531372099
:1043D00000F0E6FF4FF4C2652946382000F0E0FF08
:1043E0002946392000F0DCFF2146012000F0D8FFEB
:1043F0005946022000F0D4FF41F23001032000F0C2
:10440000CFFF40F60801082000F0CAFF08210A206B
:1044100000F0C6FF4946602000F0C2FF0121612084
:1044200000F0BEFF4FF49F71902000F0B9FF2146CD
:10443000922000F0B5FF2146932000F0B1FF4FF429
:104440004051A02000F0ACFF1021A32000F0A8FFF5
:104450000121072000F0A4FF2121072000F0A0FF88
:104460002321072000F09CFF3321072000F098FF54
:1044700040F23311EEE5FFE7E22000F079FF274636
:10448000C14C276165156561DFF800831D21C8F8FF
:104490000010802666612661256127616561022022
:1044A000C8F8000066612661256127616561042006
:1044B000C8F80000666126612561642002F030F8CA
:1044C000E02000F055FF276165614FF0010AC8F850
:1044D00000A06661266125610A2002F007F8E0204D
:1044E00000F046FF276165614FF0030BC8F800B08C
:1044F0006661266125610C2001F0F8FF012000F0C3
:1045000037FF0A2001F0F2FFE62000F031FF2761BB
:1045100065612F21C8F80010666126612561276159
:104520006561FF20C8F8000066612661256127618A
:104530006561C8F80000666126612561B02000F061
:1045400017FF276165612021C8F8001066612661A8
:104550002561276165614FF00009C8F80090666128
:104560002661256127616561C8F800B06661266132
:1045700025612761656140F21F31C8F8001066614E
:104580002661256127616561C8F800A06661266122
:1045900025612761656140F2DF11C8F8001066618E
:1045A0002661256127616561C8F800906661266112
:1045B0002561B42000F0DCFE276165610420C8F8A5
:1045C00000006661266125612761656140F21F4137
:1045D000C8F8001066612661256127616561C8F829
:1045E0000090666126612561276165612E21C8F80A
:1045F0000010666126612561276165614146C8F842
:10460000009066612661256127616561C8F80090A8
:1046100066612661256127616561C8F80090666161
:104620002661256127616561C1F800906661266198
:104630002561B62000F09CFE276165610220C8F864
:104640000000666126612561276165614FF4037191
:10465000C8F8001066612661256127616561C8F8A8
:104660000090666126612561276165611721C8F8A0
:104670000010666126612561276165611521C8F812
:10468000001066612661256127616561C8F80090A8
:1046900066612661256127616561C8F800906661E1
:1046A00026612561F02000F063FE27616561C8F88E
:1046B00000B0666126612561292000F059FED020F6
:1046C00000F056FE27616561C8F8009066612661BA
:1046D0002561BE2000F04CFE276165610521C8F808
:1046E000001066612661256127616561FE21C8F8B9
:1046F0000010666126612561276165614146C8F841
:1047000000A066612661256127616561C8F8009097
:1047100066612661256127616561C8F80090666160
:104720002661256127616561C1F800906661266197
:104730002561B82000F01CFE27616561C8F800B053
:1047400066612661256127616561C8F800A0666120
:1047500026612561BA2000F00BFE27616561C8F86B
:1047600000A0666126612561642000F053F80020F6
:10477000FCF72CFA06490120C1F8A8014FF6FF709A
:10478000FCF7E2F9BDE8F88F001001400C0C014085
:10479000000022422DE9F047DFF85C904FF08830AE
:1047A000C9F8000009F104052860134E00200C36FA
:1047B0003060124CA8152061470067614FF0400837
:1047C000C4F814800E488088A0F50941893902D1C7
:1047D000022001F0A5FE084808300068C4F81080E7
:1047E00080B227614FF03331C9F8001029604FF6CD
:1047F000FF713160BDE8F087000C014000100140FE
:10480000D401002010B500F0B3FDBDE81040FFF763
:10481000C1BF00002DE9F0478146BE2000F0A8FD91
:10482000204C4FF48077276165156561DFF878804B
:104830000521C8F800108026666126612561276180
:104840006561484602F06BFF4FF06632174B02F08D
:1048500079FF02F037FFC8F8000066612661256124
:10486000276165610121C8F8001066612661256134
:1048700027616561FF21C8F8001066612661256126
:10488000276165610020C8F8000066612661256126
:1048900027616561C8F80000666126612561BDE891
:1048A000F0870000001001400C0C014066660440D7
:1048B0002DE9F04FB84C00262146A279898846F6AA
:1048C000040341F66317012A01D02AB11DE0994281
:1048D0001BD0B94202D118E0B94216D1082814D22F
:1048E000DFE800F00406080A0C0E101206200CE0A7
:1048F00007200AE0042008E0052006E0012004E08B
:10490000002002E0032000E00220A1F5134C45F254
:10491000103245F21055BCF1410C07D0994205D038
:10492000914203D0A94201D0B9427DD1082812D2C8
:10493000DFE800F0110406080A0C0E1080260AE0D9
:10494000402608E0C02606E0202604E0602602E0BB
:10495000A02600E0E026A94202D14FF4585000E022
:104960003620914205D0A94203D0B94201D046F089
:104970000806994201D146F00206314600F010FDCA
:10498000A188B9420AD0B0062088628802D5904238
:1049900002D303E0904201D9228060807F4EDFF88D
:1049A00000B24FF0000A4FF480774FF40078A9422C
:1049B0007BD1608900F0DCFC3761C6F81480D946F1
:1049C000CBF800A0802575613561C6F8108060893C
:1049D000401C80B200F0CCFC3761C6F81480C9F8E6
:1049E00000A075613561C6F810806089801C80B2B6
:1049F00000F0BEFC3761C6F814802088401E01120A
:104A0000C9F8001075613561C6F810806089C01C56
:104A100080B200F0ADFC3761C6F814802078401EEB
:104A2000C1B2C9F8001000E099E075613561C6F8BF
:104A30001080A08900F09CFC3761C6F81480C9F88A
:104A400000A075613561C6F81080A089401C80B255
:104A500000F08EFC3761C6F81480C9F800A07561BB
:104A60003561C6F81080A089801C80B200F080FCFF
:104A70003761C6F814806088401E0112C9F8001022
:104A800075613561C6F81080A089C01C80B200F045
:104A90006FFC3761C6F81480A078401EC1B2C9F817
:104AA00000107561356156E0FFE7A146608900F0AE
:104AB0005FFC3761C6F814805D46CBF800A0802407
:104AC00074613461C6F810803761C6F81480CBF881
:104AD00000A074613461C6F810803761C6F8148094
:104AE000B9F80000401E0112296074613461C6F8F3
:104AF00010803761C6F81480C0B2286074613461D8
:104B0000C6F81080B9F80C0000F032FC3761C6F826
:104B10001480C5F800A074613461C6F81080376154
:104B2000C6F81480C5F800A074613461C6F810801E
:104B30003761C6F81480B9F80200401E01122960DE
:104B400074613461C6F810803761C6F81480C0B251
:104B5000286074613461C6F81080BDE8F08F0828C1
:104B600012D2DFE800F0040608110A0C0E103026FD
:104B70000AE0102608E0202606E0382604E0282671
:104B800002E0182600E0082646F48051BDE8F04F08
:104B9000032000F005BC0000D401002000100140FB
:104BA0000C0C01402DE9F34F04464FEA102900F0A8
:104BB000FF0A0198DFF83483060AC5B2B8F804107A
:104BC0004046DFF82CB34089A1F51342413A17D093
:104BD000A1F5A642103A13D04346A1F5D0479A79E1
:104BE0001B881B1B5B1E043F45D0A1F5C857633FC4
:104BF0007ED0A1F5AA47103F7BD0012A7AD06AE186
:104C000000F0B6FB4FF480705C46CBF81000470014
:104C1000CBF814704946DFF8DC92C9F800104FF069
:104C20008008CBF81480CBF81080CBF81070CBF84C
:104C30001000CBF81470C9F800A0CBF81480C4F8A9
:104C400010802761A948808900F092FB78102061CC
:104C50006761C9F80060C4F81480C4F81080276147
:104C600020616761C9F80050C4F81480C4F810804E
:104C70002761BDE8FC8F012A00D19CB200F078FBCF
:104C80004FF480705F46CBF810004FF40078CBF8FB
:104C90001480DFF860A2210ACAF800104FF08009E2
:104CA000CBF81490CBF81090CBF81080CBF8100014
:104CB000CBF81480E1B2CAF80010CBF81490C7F812
:104CC0001090C7F810808948808900F051FB4FF49C
:104CD00080703861C7F81480CAF80060C7F8149073
:104CE000C7F81090C7F810803861C7F8148002E048
:104CF0000AE0A9E0EEE0CAF80050C7F81490C7F83F
:104D00001090C7F81080B4E7002A6BD0DFF8DC8180
:104D100000F02EFB4FF480745846CBF81040620030
:104D2000CBF81420734FC7F800908021CBF81410F3
:104D3000CBF81010CBF81020CBF81040CBF8142093
:104D4000C7F800A0CBF81410CBF81010CBF8102047
:104D500004614261B8F800305B1E4FEA232CC7F8AB
:104D600000C041610161026104614261DBB23B60EC
:104D70004161016102615D4CA08900F0F9FA4FF4D4
:104D800080775846CBF810707900CBF81410DFF814
:104D900064C1CCF800608022CBF81420CBF810203E
:104DA000CBF81010CBF81070CBF81410CCF80050E2
:104DB000CBF81420CBF81020CBF81010CBF81070E3
:104DC000416163885B1E1C12CCF8004042610261A5
:104DD000016107614161DBB2CCF8003042610261E0
:104DE000016146E71FFA83F800F0C2FA4FF48073BE
:104DF0005846CBF810305900CBF814103D4C002722
:104E000027608022CBF81420CBF81020CBF81010AC
:104E1000CBF81030CBF814102760CBF81420CBF867
:104E20001020CBF81010036141614FEA182727606A
:104E30004261026101610361416108F0FF03236087
:104E400042610261016196E700F092FA4FF48070CE
:104E50005C46CBF810004FF40078CBF8148048463D
:104E6000DFF89090C9F800008027CBF81470CBF8D9
:104E70001070CBF810801D484089401C80B200F0B3
:104E800077FA78002061C4F81480C9F800A067613F
:104E90002761C4F810801548808900F069FA78000D
:104EA0002061C4F81480C9F8006067612761C4F804
:104EB00010800E488089401C80B200F059FA7800BA
:104EC0002061C4F81480C9F8005067612761C4F8F4
:104ED0001080CEE69CB2214600F062FAB8F80C00D1
:104EE0000199BDE8FC4F00F05BBA0000D40100203E
:104EF000001001400C0C01402DE9FF4F0446914683
:104F00004844DFF81CA3401E86B087B2BAF80400FC
:104F1000E2B2059204EB0902521E1FFA82FC4FEA2C
:104F20001C2204920CF0FF020D46CE180392761E4E
:104F30002A0A1FFA86FC00924FEA1C2202920CF009
:104F4000FF0201925246A0F513415289B3B24FEAD3
:104F5000142805F0FF0B413910D0A0F5A6411039F7
:104F60000CD0A0F5D041043908D09AF806E041F6FB
:104F7000631CBEF1010F4AD1604548D1104600F0D4
:104F8000F7F9A84C4FF48076266165156561DFF866
:104F90009892C9F8008080276761276125612661A2
:104FA00065610598C9F80000676127612561266180
:104FB00065610498C9F80000676127612561266171
:104FC00065610398C9F80000676127612561BAF837
:104FD0000C0000F0CDF92661656100984946C9F8DA
:104FE000000067612761256126616561C9F800B02D
:104FF000676127612561266165610298C9F8000033
:10500000676127612561266165610198F9E084493E
:10501000604509885DD1A1EB0900001B1FFA80FAE9
:10502000B0B20990104600F0A3F97E4C4FF480779F
:10503000276165156561DFF8F0814FEA1A21C8F82C
:1050400000108026666126612561276165610AF08E
:10505000FF01C8F80010666126612561276165615E
:105060000AEB0900401E0212C8F8002066612661A2
:10507000256127616561C1B2C8F8001066612661CB
:1050800025616748808900F073F9276165610098A0
:10509000C8F8000066612661256127616561C8F86E
:1050A00000B0666126612561276165610998010A82
:1050B000C8F800106661266125612761656109985D
:1050C000C1B2C8F800106661266125610AB0BDE86A
:1050D000F08FA0F5A04CBCF5A26C24D0BEF1010F5E
:1050E0007ED03E462046A8461F46502201464FF03D
:1050F000510B4FF0520A4FF05309104600F050F98F
:105100003146584600F04CF94146504600F048F907
:105110003946484600F044F90AB029462046BDE821
:10512000F04FFFF73FBD104600F022F93D4C4FF421
:105130008076266165156561DFF8EC90C9F800801E
:105140008027676127612561BAF80A00401C80B298
:1051500000F00EF9266165610598C9F800006761E5
:1051600027612561BAF80A00801C80B200F000F9BE
:10517000266165610498C9F80000676127612561AF
:10518000BAF80A00C01C80B200F0F2F8266165612E
:105190000398C9F80000676127612561BAF80C001F
:1051A00000F0E6F8266165610099C9F800106761B2
:1051B00027612561BAF80C00401C80B200F0D8F8D5
:1051C00026616561C9F800B0676127612561BAF899
:1051D0000C00801C80B200F0CBF82661656100E015
:1051E00013E00298C9F80000676127612561BAF8E9
:1051F0000C00C01C80B200F0BBF82661656101980C
:1052000049460860676127615FE7CA1B521E091B98
:10521000491E28461E461FFA82F88FB265E7000035
:10522000D4010020001001400C0C01402DE9F84F82
:1052300082461F460C468B46580700D0012000EBE3
:10524000D70079084843203AC0B202F0FF0900268F
:10525000009041E00C2F10D0102F12D0182F3ED10B
:10526000204909EBC90001EB80004FF00008855D83
:1052700028060AD51C4802880BE009EB49001B49A7
:10528000F1E71B4901EB0910EFE70A9828B9164826
:10529000428821465046FBF733FD6806050E154847
:1052A000641CA4B24088A04219D9A4EB0B00B842F8
:1052B00009D10AF101001FFA80FA0E485C46018804
:1052C00051450CD906E008F1010000F0FF08B8F1E3
:1052D000080FCDD3761CF6B200988642BAD3BDE84B
:1052E000F88F0000A483000818000020407900080F
:1052F000B47D0008D40100202DE9F84F044600F0E9
:10530000FF0810190D46DDE90A761FFA80FA5819D0
:105310001FFA80F94FF0000B11E0544502D3E81951
:10532000444685B24D450FD23B4629462046CDF82E
:1053300000B0FFF77BFF04EB570084B2761C327895
:10534000A2F120005E28E8D9BDE8F88F06494FF4A5
:1053500080720A614A154A61044B186080204861D6
:1053600008610A6170470000001001400C0C014008
:1053700006494FF480724A614A154A61044B18602D
:105380008020486108610A617047000000100140F8
:105390000C0C014001480089FFF7EABFD40100204E
:1053A00010B50C46FFF7E4FF06484FF48071016129
:1053B0004215426104490C60802141610161026132
:1053C00010BD0000001001400C0C014038B5012157
:1053D000242000F06DFC4FF48074ADF800401020E4
:1053E0008DF8030003200C4D8DF802006946284615
:1053F000FBF7A0FA21462846FBF71DFB0420074CCB
:10540000ADF8000069462046FBF794FA04212046D7
:10541000FBF711FB38BD00000008014000140140FB
:10542000FEE7704730B50F23C27801780125F2B14D
:10543000144A126801F1E02102F4E062C2F5E06270
:10544000120AC2F10404D3404278A24084781C407E
:105450001443220181F80024007800F01F018D40E0
:105460004009800000F1E020C0F8005130BD01F09B
:105470001F0085404809800000F1E020C0F88051FD
:1054800030BD00000CED00E002490843024908600D
:10549000704700000000FA050CED00E00021801CC0
:1054A00005280BD2DFE800F003050A070900B02148
:1054B00004E0982102E0182100E03021552000F09E
:1054C00059BD70B5802622255E24801C052813D284
:1054D000DFE800F00307120B0F00402611252F24F0
:1054E0000AE066261B254B2406E099262825712410
:1054F00002E0C02633258D2431464F2000F03AFDCE
:105500003146502000F036FD0021512000F032FDE0
:105510002946522000F02EFD2146532000F02AFD9E
:105520003146542000F026FDBDE870409E215820F1
:1055300000F020BD4021801C05280BD2DFE800F0E0
:1055400003050A070900302104E0382102E0502158
:1055500000E06021562000F00DBD0000F8B50024E9
:1055600001210D2000F0A4FB1320ADF8000010264F
:105570008DF8036003202A4F8DF8020069463846F3
:10558000FBF7D8F913213846FBF755FAF502ADF8C9
:10559000005048208DF8030069463846FBF7CAF9E9
:1055A00029463846FBF747FA4FF4B045ADF80050AE
:1055B0008DF8036069463846FBF7BCF92946384642
:1055C000FBF739FA01211748FBF702FA00F0C6FB96
:1055D0008021122000F0CEFC08B10120F8BD32205D
:1055E00000F084FF0B2000F02DFC732804D10A206A
:1055F00000F028FC762801D00220F8BD0A4D05EB0A
:105600004400417815F8140000F0B4FC022000F0CA
:105610006DFF641CA4B2732CF1D30020F8BD000010
:1056200000080140000230000091000810B5052874
:105630003AD2DFE800F0030D17212B00E7211320F9
:1056400000F098FC0021012000F094FC002126E0ED
:10565000E521132000F08EFC5A21012000F08AFC85
:105660005C211CE0E521132000F084FC582101207E
:1056700000F080FC602112E0E521132000F07AFCAC
:105680008421012000F076FC4C2108E0E521132064
:1056900000F070FC9621012000F06CFC4021BDE878
:1056A0001040022000F066BC10BD10B507283BD2A8
:1056B000DFE800F0040608121C262C0004210CE090
:1056C000242100E014213A2000F054FC80216720BE
:1056D00000F050FC802122E014213A2000F04AFC26
:1056E0008021672000F046FCC02118E014213A20F8
:1056F00000F040FC4021672000F03CFC40210EE01F
:1057000014213A2000F036FCC021E0E714213A20B1
:1057100000F030FC4021672000F02CFCA021BDE807
:105720001040682000F026BC10BD10B5001D0928EF
:1057300015D2DFE800F01F1D12100E0C0A0705003D
:10574000482100E03821062409E02821FBE7182140
:10575000F9E70821F7E7082100E018210E249B2033
:1057600000F008FC2146BDE81040AB2000F002BC70
:105770002821F3E73821F1E710B5011D08290BD8DE
:1057800004014034E1B2A72000F0F4FBE1B2BDE82F
:105790001040A82000F0EEBB10BD011D082906D85E
:1057A000202101EB8000C1B29C2000F0E3BB7047D8
:1057B000F8B5002401210D2000F07AFA1320ADF88D
:1057C000000010268DF803600320364F8DF802008C
:1057D00069463846FBF7AEF813213846FBF72BF93C
:1057E000F502ADF8005048208DF8030069463846B0
:1057F000FBF7A0F829463846FBF71DF94FF4B045F2
:10580000ADF800508DF8036069463846FBF792F812
:1058100029463846FBF70FF901212348FBF7D8F852
:1058200000F09CFA8021122000F0A4FB08B10120B6
:10583000F8BD322000F05AFE1C2000F003FB4FF6AA
:10584000FF7606EA00251D2000F0FCFA40EA05017B
:10585000A1F5FE40A23803D014A0FAF709FDE6E74F
:105860000A2000F0EFFA06EA00250B2000F0EAFA21
:1058700040EA0501A1F5EE40213804D00EA0FAF768
:10588000F7FC0220F8BD0F4D05EB4400417815F8F8
:10589000140000F06FFB641CA4B2412CF4D3002070
:1058A000F8BD000000080140000230004D49443AB4
:1058B00025640D0A000000004849443A25640D0A99
:1058C00000000000E691000810B5062847D2DFE886
:1058D00000F003061D27313CFF21132009E0FD21C4
:1058E000132000F047FB5A21012000F043FB5C210C
:1058F00029E000F03FFB65210E2000F03BFB00217A
:105900002D2000F037FB00212E2024E0FD21132064
:1059100000F030FB5821012000F02CFB602112E048
:10592000FD21132000F026FB8421012000F022FB42
:105930004C2108E0FD21132000F01CFB96210120E2
:1059400000F018FB40210220D3E7FF21132000F0D4
:1059500011FBE5210E20BDE8104000F00BBB10BD8F
:1059600010B5072840D2DFE800F00406111B252FF0
:105970003900062100E02621A62000F0FBFA802154
:10598000602000F0F7FA8021612029E01E21A62086
:1059900000F0F0FAA021602000F0ECFA4021F3E7DB
:1059A0001E21A62000F0E6FA4021602000F0E2FA75
:1059B000A021E9E71E21A62000F0DCFA802160206A
:1059C00000F0D8FAC021DFE71E21A62000F0D2FAAD
:1059D0006021084600F0CEFA6021D5E74621A620D6
:1059E000BDE8104000F0C6BA10BD2DE9F0470C46E6
:1059F00005464AB3C5F5207000EBD070C0F34F07E1
:105A0000C4F5F07000EBD070C0F34F0606211220F1
:105A100000F0B0FA2321172000F0ACFAA0211820E2
:105A200000F0A8FA0721192000F0A4FAF0211A20AA
:105A300000F0A0FA0021322000F09CFAA0212920D9
:105A400000F098FAF02128E0C5F5A07000EBD070C6
:105A5000C0F34F07C4F1F00000EBD070C0F34F0665
:105A60004621122000F086FA3F21172000F082FA2A
:105A70005021182000F07EFA0321192000F07AFA54
:105A800078211A2000F076FA0021322000F072FA14
:105A90005021292000F06EFA78212C2000F06AFABB
:105AA000172000F0CFF900EB9700C1B2172000F0EB
:105AB00061FAC5F387018A46182000F05BFA1920C5
:105AC00000F0C0F900EB5600C1B2192000F052FA04
:105AD000C4F3470189461A2000F04CFA322000F046
